:020000020000FC
:02000000B0C28C
:02001200D6C254
:02001C0013C40B
:1002000001020304020406080306090C04080C108A
:080210000C0B0A0904040403AD
:10040000649F8001749F100D569F100D0895222443
:10041000759F9001649F8001749F100D211D321DF6
:10042000569F100D211D321D089522247502900142
:10043000649F800174033209100D211D321D560383
:100440003209100D211D321D089522247502200D40
:10045000311D649F000D111D221D321D74033209D0
:10046000100D211D321D56033209100D211D321DA4
:100470000895222475022001649F000D111D241D82
:10048000351D74033209100D211D321D560332092A
:10049000100D211D321D08952224F50390016C03D7
:1004A000221D8001FC033209100D211D321DDE03C7
:1004B0003209100D211D321D08952224F503200D4F
:1004C000311D6C03221D321D000D111D221D321D18
:1004D000FC033209100D211D321DDE033209100DFF
:1004E000211D321D08952224F50320016C03421CB6
:1004F000000D111D241D351DFC033209100D211D99
:10050000321DDE033209100D211D321D0895002712
:100510001127221B99E1661F771F881F9A9509F4FE
:100520000895001F111F221F031B140B250B28F415
:10053000030F141F251F8894EECF0894ECCF089565
:10054000441B79E0551F7A9509F40895441F461B12
:1005500018F4460F8894F6CF0894F4CFD8DFF0DF74
:1005600008950FE50DBF04E00EBF0FEF07BB08BBFA
:1005700004BB01E007B90CEE06B9A19803E003BF84
:1005800001E009BF09ED02BF789400E010E010938C
:10059000690000936A0010936B0000936C0001E007
:1005A00000936800009367000FEFC360C064FCD045
:1005B00002D108D11BD12ED133D1A7D0CF7BF6CF1A
:1005C000AC9A78941F932F933F934F935F936F93BD
:1005D0007F938F939F93AF93BF93DF93EF93FF939B
:1005E0001FB71F9329ED22BF50D0A4D0B0D0C6FBB7
:1005F00016F0C06801C060D01F911FBFFF91EF913E
:10060000DF91BF91AF919F918F917F916F915F919A
:100610004F913F912F911F91AC981895AD9A0F93E0
:1006200004B15527662707FB51F906FB50F905FB76
:1006300061F904FB60F974E0679F602D650FF2E0DB
:10064000E0E0E61F8491552703FB51F902FB50F9C6
:10065000F2E0E0E1E51F9491502F5370F2E0E4E105
:10066000E51F3491399F602D689F602D712D88277B
:1006700038E2442755274BDF402F562F24E102D183
:10068000509367000F91AD9808950F930091680003
:100690005091670072E065E0759F502D51DF540F57
:1006A000051721F003950093680004C001E0009352
:1006B0006800B4DF0F910895AB9A0F9354B135E001
:1006C00069E025E057FB50520EF001C0A8942AF4CF
:1006D0005195DDD0D7D0519502C0D9D0D3D0509309
:1006E0006D0054B139EA65E0569F602D712D882761
:1006F000442755270CDF25E5562F402FC3D05093B4
:100700006E00CF770F91AB980895AA9A20B325FB7E
:100710000EF00AC0C1FB0EF407C0C0FB1EF0C59A64
:10072000C16002C0C598CE7F25FBC1F9C7FDC4DFFB
:10073000AA98089501FB16F4086008C005FB1EF492
:1007400020E931E002C028EC30E00ED0089500FB33
:1007500016F4046008C004FB1EF420E931E002C076
:1007600028EC30E011D0089580916C0090916B00DE
:100770009AD011F0019603C09927882757D080930B
:100780006C0090936B00089580916A0090916900CD
:100790008AD011F0019603C0992788274DD0809305
:1007A0006A0090936900089510B313FB16F4026079
:1007B00001C00D7F089510B312FB16F4016001C053
:1007C0000E7F089510B314FB0EF00DC007FB0EF45E
:1007D0000AC005FB16F0006201C00F7D20E02093E7
:1007E0006B0020936C0014FB07F9089510B311FB04
:1007F0000EF00DC006FB0EF40AC004FB16F00061FB
:1008000001C00F7E20E02093690020936A0011FB55
:1008100006F9089503FB16F4C39A01C0C39808951E
:1008200002FB16F4C29A01C0C298089503FB16F4A5
:10083000077F01C00860089502FB16F40B7F01C01A
:1008400004600895AE9A0F931F939F930FB70F9371
:10085000002711279927B89A14B105B101FB93F924
:1008600000FB92F917FB91F916FB90F9943010F404
:10087000C09A01C0C0980F910FBF9F911F910F9117
:10088000AE981895421708F401C0539508959F93A8
:100890008F9356DE539FA02D439F502D51DE5A0F4C
:0C08A0008F919F9108958217930708958F
:00000001FF
